:020000040800F2
:10000000D817002085010008B5290008A90F0008AD
:10001000B1290008C9060008215B000800000000A3
:100020000000000000000000000000005D2E00083D
:10003000CD06000800000000292A0008C130000891
:100040009F0100089F0100089F0100089F01000810
:100050009F0100089F0100089F0100089F01000800
:100060009F0100089F0100089F0100089F010008F0
:100070009F0100089F0100089F0100089F010008E0
:100080009F0100089F0100089F0100089F010008D0
:100090009F0100089F0100089F0100082D0800082B
:1000A0009F0100089F0100089F0100089F010008B0
:1000B000613100089F0100089F0100089F010008AE
:1000C0009F0100089F0100089F0100089F01000890
:1000D0009F0100089F0100089F0100080000000028
:1000E0009F0100089F01000845380008000000003B
:1000F0000000000000000000000000000000000000
:10010000000000009F0100089F010008000000009F
:1001100000000000000000000000000000000000DF
:100120009F0100089F0100089F0100089F0100082F
:1001300000000000000000000000000000000000BF
:10014000000000000000000000000000353800083A
:1001500000000000000000009F0100089F0100084F
:100160009F01000800000000000000009F0100083F
:10017000DFF80CD000F018F900480047FD5F0008D8
:10018000D81700200648804706480047FEE7FEE7EC
:10019000FEE7FEE7FEE7FEE7FEE7FEE7FEE7FEE737
:1001A000C53000087101000810B5002200E0521CA3
:1001B000835C8C5CA34201D1002BF8D1D8B2E1B2B0
:1001C000401A10BD80EA010210B502F00043400061
:1001D00022D04A001FD0010E01EB1261C0F356007D
:1001E000C2F3560240F4000042F40002A0FB0220D9
:1001F00000047F39140400D0401C50EA124001D49E
:100200004000491EC2B20C0604EBD010401C40084E
:10021000802A02D003E0002010BD20F00100002958
:1002200000DA0020184310BD30B480EA010202F069
:10023000004530F0004221F0004013D090B1C30DD2
:10024000D40DC2F31601C0F31600E41A41F4000104
:1002500040F400027D34914201D3641C00E0490067
:10026000002C02DA30BC002070474FF4000000235D
:10027000914201D3891A034340084FEA4101F7D163
:1002800051B1914202D14FF0004105E002D24FF04E
:10029000010101E06FF0010103EBC450284430BCC0
:1002A00000F04AB896230022114600F04EB820F024
:1002B0000040C10DC0F3160040F400007F2901DAB0
:1002C00000207047962903DCC1F19601C8407047B1
:1002D0009639884070472DE9F05F05460020924628
:1002E0009B4688460646814640241BE028464146F8
:1002F0004746224600F079F853465A46C01A9141C3
:1003000010D311461846224600F060F82D1A67EB0C
:1003100001084F4622460120002100F057F817EB54
:1003200000094E41201EA4F10104DFDC484631469D
:100330002A464346BDE8F09F0029A8BF7047401CED
:10034000490008BF20F00100704710B4B0FA80FCEB
:1003500000FA0CF050EA010404BF10BC704749B128
:10036000CCF1200421FA04F411FA0CF118BF012198
:1003700021430843A3EB0C01CB1D4FEA00614FEA78
:10038000102042BF002010BC704700EBC350104447
:100390000029A4BF10BC7047401C490008BF20F0D2
:1003A000010010BC70470000064C074D06E0E068F5
:1003B00040F0010394E8070098471034AC42F6D3AC
:1003C000FFF7DAFE98690008B8690008202A04DB04
:1003D000203A00FA02F1002070479140C2F1200358
:1003E00020FA03F3194390407047202A04DB203A97
:1003F00021FA02F00021704721FA02F3D040C2F145
:100400002002914008431946704770B58C1810F8C7
:10041000015B15F0070301D110F8013B2A1106D149
:1004200010F8012B03E010F8016B01F8016B5B1E63
:10043000F9D12B0705D40023521E0DD401F8013B3E
:10044000FAE710F8013BCB1A921C03E013F8015BAA
:1004500001F8015B521EF9D5A142D8D3002070BD2E
:10046000CA430260704721B1826842F00102826093
:1004700003E0826822F0010282607047014600209A
:100480008A6802F004020AB1012000E000207047EF
:100490000146C86C80B270470246002013680B40CA
:1004A0000BB1012000E000207047014600208A685F
:1004B00002F008020AB1012000E0002070470000AD
:1004C00030B502460020002350680F4C20400D79C3
:1004D0000C6844EA05242043506090680B4C20408F
:1004E000D1E902542C434D7944EA450420439060FD
:1004F000D06A20F470000C7C641EE4B2234340EA0E
:100500000350D06230BD0000FFFEF0FFFDF7F1FDAB
:10051000F0B504460D4600200021092D11DDE068EC
:10052000A5F10A0606EB4607072606FA07F18843F7
:10053000A5F10A0606EB460603FA06F10843E06059
:100540000CE0206905EB4507072606FA07F188430A
:1005500005EB450603FA06F108432061072A0FDA86
:10056000606B561E06EB86071F2606FA07F18843C6
:10057000561E06EB860605FA06F10843606322E084
:100580000D2A0FDA206BD61F06EB86071F2606FA08
:1005900007F18843D61F06EB860605FA06F10843E5
:1005A000206310E0E06AA2F10D0606EB86071F2625
:1005B00006FA07F18843A2F10D0606EB860605FA56
:1005C00006F10843E062F0BD10B504460B488442D2
:1005D00008D10121401502F077FA0021601502F0E0
:1005E00073FA0AE00648844207D10121001502F09F
:1005F0006BFA0021201502F067FA10BD00240140BB
:1006000000280140816841F008018160704721B1F4
:10061000826842F4A002826003E0826822F4A002B1
:1006200082607047816841F0040181607047002159
:100630000160017141718160C160012101747047E5
:1006400010B500F045F810BD00B585B00121480592
:1006500002F00AFA194800F0D7FC0121082002F044
:1006600023FA0121082002F01FFAC020ADF8100083
:1006700002208DF812001C208DF8130004A91048E8
:1006800000F06EF90D4800F0BFFC0020ADF804004A
:100690004BF6FF70ADF80600FF20ADF808004FF4F0
:1006A0008060ADF80A000001ADF80C00054800902C
:1006B0006946024800F0FEFC05B000BD0054004051
:1006C000000C0140400D030000BFFEE77047000032
:1006D00010B56FF0040002F0DFFC09480068FFF776
:1006E000E1FD04460749FFF79FFD074908600749F8
:1006F00005480068FFF766FD0549086010BD000069
:10070000380200200024F44A9802002000007A44B5
:100710009C0200202DE9F04104463FE0B4F5FA7F49
:100720000EDD204801682048FFF74CFD0646FFF724
:10073000BEFD4FF0E0214861A4F5FA7084B20FE0ED
:100740002046FFF7AFFD0746164801683846FFF719
:1007500039FD0646FFF7ABFD4FF0E021486100246C
:1007600000204FF0E02188610846006940F0010058
:10077000086100BF4FF0E020056905F0010018B1E5
:1007800005F480300028F5D04FF0E020006920F01B
:1007900001004FF0E021086100208861002CBDD1EC
:1007A000BDE8F0819C0200200000FA4370B50446C9
:1007B000002500BF04E00520FFF7ACFF681D85B2EF
:1007C000A542F8DB70BD00002DE9F0410546284642
:1007D000FFF768FD0746144801683846FFF7F2FC4A
:1007E0000646FFF764FD4FF0E02148610020886174
:1007F0000846006940F00100086100BF4FF0E020AA
:10080000046904F0010018B104F480300028F5D028
:100810004FF0E020006920F001004FF0E021086176
:1008200000208861BDE8F0819802002010B52020EA
:1008300000F010F828B1012002490870202000F0D3
:1008400003F810BDC0000020014908607047000097
:1008500014040140014600200022074B1B6803EAF4
:100860000102054B14331B680B4013B10AB1012080
:1008700000E00020704700000004014000212349EF
:100880008279002A3AD00A46126803689A430B46D6
:100890001A600A1D126803689A430B1D1A600279D8
:1008A00011440A6803681A430A60184A0832126839
:1008B00003689A43154B08331A601A1D12680368BF
:1008C0009A43124B0C331A604279102A0ED11A1F28
:1008D000126803681A430D4B08331A601A1D126818
:1008E00003681A43094B0C331A600DE0074942793B
:1008F00011440A6803681A430A6005E0027911444A
:100900000A6803689A430A607047000000040140C7
:100910000021016001710C2141710021817170473A
:1009200030B500228B071C0F0F2303FA04F20B4B88
:100930008C1053F824309343084C8D1044F8253024
:1009400023468C1053F824308C07240F00FA04F44B
:100950002343024C8D1044F8253030BD080001407F
:100960002DE9F04102460025002600200023002446
:10097000002791F803C00CF00F0591F803C00CF0AC
:10098000100CBCF1000F03D091F802C04CEA050531
:1009900091F800C0BCF1000F31D0146800202BE0AA
:1009A0004FF0010C0CFA00F3B1F800C00CEA03069A
:1009B0009E4220D183004FF00F0C0CFA03F7BC438A
:1009C00005FA03FC4CEA040491F803C0BCF1280FBB
:1009D00006D14FF0010C0CFA00FCC2F814C00AE07A
:1009E00091F803C0BCF1480F05D14FF0010C0CFA8F
:1009F00000FCC2F810C0401C0828D1D31460B1F824
:100A000000C0BCF1FF0F34DD546800202EE000F17F
:100A1000080C4FF0010808FA0CF3B1F800C00CEA1A
:100A200003069E4221D183004FF00F0C0CFA03F70E
:100A3000BC4305FA03FC4CEA040491F803C0BCF182
:100A4000280F05D100F1080C08FA0CF8C2F8148040
:100A500091F803C0BCF1480F07D100F1080C4FF02A
:100A6000010808FA0CF8C2F81080401C0828CED300
:100A70005460BDE8F0810000F0B50446B4F1004FC9
:100A800072D90023002224F00045EB0905F07F0510
:100A90002A0905F00F05052B03D0970005FA07F684
:100AA00003E05708BF0005FA07F6062B15D2DFE86A
:100AB00003F00305080B0E11FD480FE0FC48001D74
:100AC0000CE0FB48083009E0F9480C3006E0F84833
:100AD000103003E0F648143000E000BF00BF5AB900
:100AE000052B04D1076827F0030707604AE0076871
:100AF00027F00F07076045E0012A0BD1052B04D131
:100B0000076827F00C0707603CE0076827F0F0074C
:100B1000076037E0022A0BD1052B04D1076827F0C4
:100B2000300707602EE0076827F47067076029E048
:100B3000032A0BD1052B04D1076827F0C0070760F3
:100B400020E0076827F4704707601BE0042A04D1FF
:100B5000076827F47027076014E0052A05D10768A5
:100B600027F4700707600DE012E0062A04D1076839
:100B700027F07067076005E0072A03D1076827F0B0
:100B800070470760012902D1076837430760A3E176
:100B9000B4F5805F5AD028DC402C7BD011DC042CCB
:100BA00052D007DCB4F1004F7AD0012C62D0022C75
:100BB00072D148E0082C48D0102C6ED0302CF7D1E0
:100BC00092E0B4F5407F69D008DCC02C67D0B4F562
:100BD000807F75D0B4F5007FEAD1C8E0B4F5006F2E
:100BE0006FD0B4F5406FE3D1F1E0B4F5002F32D00F
:100BF00014DCB4F5803F2BD009DCB4F5804F71D004
:100C0000B4F5C04F6FD0B4F5004FD1D11FE0B4F5AB
:100C1000003F1ED0B4F5802FCAD11BE0B4F1806F25
:100C200072D009DCB4F5801F16D0B4F1807F6CD08F
:100C3000B4F1007FBCD10AE1B4F1884F76D0B4F1B1
:100C4000904FB5D138E100BF00BF00BF00BF00BF6B
:100C500000BF00BF00BF00BF954820384068A043D8
:100C6000934A203A5060012903D11046406820433E
:100C7000506030E18E48203840688E4A10408C4ADF
:100C8000203A5060012904D11046406840F001002C
:100C9000506020E13AE003E01CE113E077E046E039
:100CA000834820384068834A1040814A203A506087
:100CB000012904D11046406840F0004050600AE12C
:100CC00045E074E07A482038406820F03000784AE7
:100CD000203A5060012904D11046406840F01000CD
:100CE0005060F8E083E092E071482038406820F0DE
:100CF00030006F4A203A5060012904D11046406804
:100D000040F030005060E6E0B1E090E06848203804
:100D1000406820F0C000664A203A5060012904D1A2
:100D20001046406840F040005060D4E0AFE06048BA
:100D30002038406820F0C0005D4A203A5060012908
:100D400004D11046406840F0C0005060C3E05848ED
:100D50002038406820F44070554A203A50600129FC
:100D600004D11046406840F480705060B3E05048B1
:100D70002038406820F440704D4A203A50600129E4
:100D800004D11046406840F400705060A3E0484829
:100D90002038406820F44070454A203A50600129CC
:100DA00004D11046406840F44070506093E04048E1
:100DB0002038406820F440603D4A203A50600129C4
:100DC00004D11046406840F40060506083E0384829
:100DD0002038406820F44060354A203A50600129AC
:100DE00004D11046406840F44060506073E03048E1
:100DF0002038406820F4C0402D4A203A5060012934
:100E000004D11046406840F48040506063E02848B8
:100E10002038406820F4C040254A203A506001291B
:100E200004D11046406840F4C040506053E0204870
:100E30002038406820F0E0601D4A203A50600129C7
:100E400004D11046406840F08070506043E018487C
:100E50002038406820F0E060154A203A50600129AF
:100E600004D11046406840F00070506033E01048F4
:100E70002038406820F0E0600D4A203A5060012997
:100E800004D11046406840F08060506023E008487C
:100E90002038C06920F04060054A203AD06101291D
:100EA00004D11046C06940F08060D06113E00000BA
:100EB00020000140FEFFFF7F0848C06920F040602D
:100EC000064AD061012904D11046C06940F0006093
:100ED000D06100E000BF00BFF0BD00000000014095
:100EE00041617047016170474FF6FF710180022137
:100EF00081700421C170704770B50A480468801C75
:100F00000568801C0668344454B10822064920460E
:100F100000F0E6FB042204491031284600F0E0FB13
:100F200070BD0000E8F7FF1F6E0000201CB50446EE
:100F3000002001900120234601AA6421009003486B
:100F400000F02CF99DF804001CBD00000058004082
:100F50007CB504460D468DF804500120234601AAB5
:100F600064210090024800F0F3FA01207CBD0000EB
:100F700000580040F0B5C1B006460F4615460024A3
:100F800004E0385D01A90855601C84B2AC42F8DB6E
:100F9000334601AA64210348009500F0D9FA0120E4
:100FA00041B0F0BD0058004000BFFEE721B102880B
:100FB00042F48062028004E002884FF6FF331A4058
:100FC0000280704770B502460024002500230020EF
:100FD000958A138B1B0445EA030626F07F4404EA36
:100FE00001068E4201D1012000E0002070BD21B138
:100FF000028842F00102028004E002884FF6FE738C
:101000001A4002807047000010B504460C48844224
:1010100009D10121480501F037FD00214FF40010EE
:1010200001F032FD0BE00748844208D10121880518
:1010300001F02AFD00214FF4800001F025FD10BDD4
:10104000005400400058004021B1028842F48072F0
:10105000028004E002884FF6FF631A400280704766
:1010600021B1028842F40072028004E002884FF647
:10107000FF531A40028070470CB50246002000233F
:101080000193009300920B0F019321F07F41019B8C
:101090001BB1009B1433009303E0090C009B183331
:1010A0000093009B1B680B400BB1012000E0002067
:1010B0000CBD00002DE9F04385B004460D46002626
:1010C000B1460427DFF8C880A68806F47F46684644
:1010D00001F00AFDDDF808802E48B8FBF0F01FFA99
:1010E00080F946EA0906A68020884FF6FE7108407E
:1010F000208000262849286888420CD828684000AB
:10110000B8FBF0F087B2042F00DA04273E4309F160
:101110000100208427E0E8884BF6FF71884206D161
:10112000286800EB4000B8FBF0F087B209E02868BF
:1011300000EBC00101EB0010B8FBF0F087B247F400
:101140008047C7F30B0008B947F0010747F4004098
:1011500006434FF4967009FB00F04FF47A7190FB50
:10116000F1F0401C2084A683208840F001002080FC
:1011700026884FF6F5300640A8886989084306435B
:101180002680A88929890843208105B0BDE8F0831D
:1011900000127A0040420F00A08601002DE9F041C4
:1011A0000646884614461F46069D4FF4C820D5497A
:1011B000086008E0D34801680068401ED14A10600A
:1011C00009B900F0B9F94FF400313046FFF754FF88
:1011D0000028EFD1308820F40060308001213046B3
:1011E000FFF7E4FE01213046FFF72EFF4FF4C82041
:1011F000C449086008E0C34801680068401EC14A4D
:10120000106009B900F098F9BF493046FFF7DAFEDF
:101210000028F0D000224146304600F081F94FF41A
:10122000C820B849086008E0B64801680068401E58
:10123000B44A106009B900F07FF9B4493046FFF7AD
:10124000C1FE0028F0D008E0AE4801680068401EEA
:10125000AC4A106009B900F06FF980213046FFF701
:10126000B1FE0028F0D001213046FFF7C0FEA848AB
:10127000864218D13912304600F05BF94FF4C8208D
:10128000A049086008E09F4801680068401E9D4A28
:10129000106009B900F050F99C4982313046FFF7DF
:1012A00091FE0028EFD0F9B2304600F042F94FF439
:1012B000C8209449086008E0924801680068401E10
:1012C000904A106009B900F037F9904982313046F0
:1012D000FFF778FE0028EFD001213046FFF7B4FE7B
:1012E0004FF4C8208749086008E086480168006814
:1012F000401E844A106009B900F01EF98249304648
:10130000FFF760FE0028F0D001224146304600F091
:1013100007F94FF4C8207B49086008E07948016864
:101320000068401E774A106009B900F005F9794954
:101330003046FFF7A1FE0028F0D0012D0AD1002190
:101340003046FFF733FEB08A308B01213046FFF77D
:1013500087FE12E0022D0AD1308840F40060308010
:10136000B08A308B00213046FFF720FE05E00121D6
:101370003046FFF71BFEB08A308BBDE0032D7DDCCD
:10138000012D1CD14FF4C8205E49086008E05D487B
:1013900001680068401E5B4A106009B900F0CCF893
:1013A00059493F313046FFF70DFE0028EFD0304657
:1013B00000F0B2F82070641C681E85B29CE0022D1B
:1013C00027D14FF4C8204F49086008E04D48016814
:1013D0000068401E4B4A106009B900F0ADF84D4955
:1013E000891C3046FFF748FE0028EFD00121304627
:1013F000FFF736FE304600F08FF82070641C681E40
:1014000085B2304600F088F82070641C681E85B2F2
:1014100072E04FF4C8203B49086008E03948016891
:101420000068401E374A106009B900F085F8394954
:10143000891C3046FFF720FE0028EFD000213046FF
:10144000FFF7B4FD304600F067F82070641C681E9A
:1014500085B24FF4C8202B49086008E0294801688C
:101460000068401E274A106009B900F065F8294954
:10147000891C3046FFF700FE002800E013E0EDD0A5
:1014800001213046FFF7ECFD304600F045F82070B2
:10149000641C681E85B2304600F03EF82070641C63
:1014A000681E85B228E04FF4C8201649086008E09D
:1014B000144801680068401E124A106009B900F023
:1014C0003BF811493F313046FFF77CFD0028EFD053
:1014D000304600F021F82070641C681E85B20D496A
:1014E000891C3046FFF7C8FD30B1304600F014F8D3
:1014F0002070641C681E85B2002D7FF43FAFBDE8EC
:10150000F0810000BC000020010003000200070081
:1015100000540040020000100146088AC0B2704723
:1015200012B141F0010102E04FF6FE731940018251
:10153000704701827047000010B502A004F0F2FA73
:1015400010BD00006572726F722121210D0A00002A
:101550002DE9F04106460F4614461D46DDF8188079
:101560004FF4C8205A4908600AE0594801680068E9
:10157000401E574A106019B94FF0FF30BDE8F081A6
:101580004FF400313046FFF777FD0028EDD10121FF
:101590003046FFF759FD4FF4C8204D49086009E077
:1015A0004B4801680068401E494A106011B94FF06D
:1015B000FF30E3E747493046FFF704FD0028EFD04E
:1015C000002239463046FFF7ABFF4FF4C8204049B0
:1015D000086009E03E4801680068401E3C4A10600F
:1015E00011B94FF0FF30C9E73B493046FFF7EAFC3D
:1015F0000028EFD009E0364801680068401E344AF0
:10160000106011B94FF0FF30B8E780213046FFF786
:10161000D9FC0028EFD03148864218D12912304633
:10162000FFF787FF4FF4C8202949086008E02848E1
:1016300001680068401E264A106009B9FFF77CFF68
:10164000254982313046FFF7BDFC0028EFD0E9B2D2
:101650003046FFF76EFF4FF4C8201D49086008E0D0
:101660001B4801680068401E194A106009B9FFF75D
:1016700063FF194982313046FFF7A4FC0028EFD000
:1016800019E021783046FFF754FF641C4FF4C8205E
:101690000F49086008E00E4801680068401E0C4AC7
:1016A000106009B9FFF748FF0B4982313046FFF758
:1016B00089FC0028EFD0B8F10000A8F101011FFA61
:1016C00081F8DED101213046FFF7CAFC002055E742
:1016D000BC0000200100030002000700005400408D
:1016E00030B50B46002100BF16E00A24B4EB107F92
:1016F00005D9302404EB107403F8114005E04124AF
:1017000004EB10740A3C03F81140000100254C0062
:10171000641C1D554C1CE1B29142E6DB30BD00005B
:1017200070B51F213248FEF79BFE01213048FEF7BD
:101730006EFF00BF02212E48FEF7AEFE0028F9D052
:101740002B48FEF7A5FE2B490880084600882A4949
:101750000988884205DD2748008827490988401AFA
:1017600004E02548008823490988401A3E283EDBCA
:1017700020480088204908801E480088C0F5805411
:1017800064204443240B25461C48008819490988D5
:10179000884205DA1948008816490988081A04E0C1
:1017A0001648008813490988401A3E2808DA144868
:1017B000007801280CD101211248FFF791FB07E0C6
:1017C0000F480078012803D101210E48FFF78AFB5A
:1017D0000D480088401E68436421B0FBF1F00B49BE
:1017E0000880084601884FF0804001F025FD70BD5B
:1017F000002401400E0000202E00002014000020D4
:101800002C00002000080140080000200A000020F1
:1018100030B58FB04FF4804001F008F95A48FEF718
:10182000D3FE01214FF4017001F03EF90121084679
:1018300001F01AF90EA8FFF757FB0820ADF83800A1
:1018400000208DF83B000EA95048FFF789F80420CE
:10185000ADF8380018208DF83B0002208DF83A00D2
:101860000EA94A48FFF77CF809A8FEF7E0FE002021
:1018700009908DF828008DF829004FF460200B9016
:1018800000200C9001208DF8340009A93E48FEF795
:1018900017FE0723012203213B48FEF739FE0121F1
:1018A0003948FEF7E0FD3848FEF7ACFE00BF364889
:1018B000FEF7FBFD0028FAD13348FEF7B3FE00BF68
:1018C0003148FEF7DBFD0028FAD101212E48FEF752
:1018D0009EFE00BF02212C48FEF7DEFD0028F9D055
:1018E0002948FEF7D5FD2A49088008460088C0F53A
:1018F000805464204443240B25462648006844F65F
:101900002061B0FBF1F0401E2349088008460088A2
:10191000401E68436421B0FBF1F02049088005A80F
:1019200001F0B6FC0020ADF8140006901A480088BB
:1019300007900020ADF820008DF8220005A94FF097
:10194000804001F07BFC684601F06CFC7020ADF833
:1019500000000120ADF8020010480088029000202D
:10196000ADF80C004FF48070ADF8100069468005AA
:1019700001F015FC0121880701F0F6FB0121880721
:1019800001F0FEFB0FB030BD002401400008014013
:101990000E00002038020020080000200A0000206D
:1019A00010B51B48007828B31A480078112810D1C8
:1019B0008021FF20FFF7CCFA0F210820FFF7C8FA9B
:1019C0006021FF20FFF7C4FA00214C20FFF7C0FA86
:1019D0001CE08021FF20FFF7BBFA8F210820FFF7D2
:1019E000B7FA6021FF20FFF7B3FABF214C20FFF7C1
:1019F000AFFA0BE06021FF20FFF7AAFAFF214C208D
:101A0000FFF7A6FAFF214D20FFF7A2FA10BD000054
:101A1000D8000020D700002070B5B248007800B987
:101A200070BD00F06FFE6021FF20FFF791FA60208B
:101A3000FFF77CFA00F0C705AB48007808B145F025
:101A40002005AA48007808B145F01005A84800789C
:101A5000002872D0A7480078142818D009DCA0F11B
:101A60000500072862D2DFE800F00D0E0F6161105B
:101A70001100152831D0162830D019282FD01A2857
:101A800054D12DE000BF00BF00BF00BF00BF45F034
:101A90000805994800884FF6FF7101EA4000964911
:101AA00008809649088800EBD0714910A0EB4101ED
:101AB000012906D191480088C1EB40008F49088078
:101AC00006E08E480088012101EB40008B49088028
:101AD00017216820FFF73CFA2DE000BF00BF00BFD0
:101AE00045F00805844800884FF6FF7101EA400080
:101AF000814908808149088800EBD0714910A0EB2A
:101B00004101012906D17D480088C1EB40007B4995
:101B1000088006E079480088012101EB4000774900
:101B2000088019216820FFF713FA04E000216820DB
:101B3000FFF70EFA00BF8EE0FFE771480088B0F5AE
:101B4000F06F2AD16C480088B0F5077F25D145F0A9
:101B50000805694800884FF6FF7101EA40006649B0
:101B600008806649088800EBD0714910A0EB41015C
:101B7000012906D161480088C1EB40005F49088017
:101B800006E05E480088012101EB40005B490880C7
:101B900017216820FFF7DCF95DE059480088B0F5AF
:101BA000B46F29D154480088F02825D145F00805A4
:101BB000514800884FF6FF7101EA40004E49088005
:101BC0004E49088800EBD0714910A0EB4101012972
:101BD00006D14A480088C1EB40004849088006E029
:101BE00046480088012101EB400044490880172144
:101BF0006820FFF7ADF92EE041480088B0F5B46FDA
:101C000029D13D480088B0F5907F24D145F00805E2
:101C1000394800884FF6FF7101EA400036490880D4
:101C20003649088800EBD0714910A0EB4101012929
:101C300006D132480088C1EB40003049088006E0F8
:101C40002E480088012101EB40002C490880192111
:101C50006820FFF77DF929466020FFF779F92948C8
:101C6000008829490988084484B221126120FFF7BD
:101C70006FF9E1B26220FFF76BF921480488211265
:101C80006320FFF765F9E1B26420FFF761F91F48AF
:101C9000048821126520FFF75BF9E1B26620FFF7A7
:101CA00057F91B4800881B490988084484B2E1B2EF
:101CB0006720FFF74DF91048048821126920FFF7CB
:101CC00047F9E1B26A20FFF743F90C480488211272
:101CD0006B20FFF73DF9E1B26C20FFF739F900BF47
:101CE0009EE60000090100202C0100202D010020AB
:101CF0000A0100200B0100201E0100202A01002003
:101D00001C010020200100202401002028010020C7
:101D1000220100202601002010B56021FF20FFF7DE
:101D200017F9FE210720FFF713F92E48007888B92C
:101D300000215220FFF70CF92B480078042804D129
:101D400008215320FFF704F94BE000215320FFF74F
:101D5000FFF846E023480078202804D101215220D2
:101D6000FFF7F6F803E000215220FFF7F1F81E48D4
:101D70000078042816D11D480078402804D150214D
:101D80005320FFF7E5F82CE018480078802804D1AC
:101D900070215320FFF7DCF823E070215320FFF778
:101DA000D7F81EE010480078082816D10F480078B0
:101DB000402804D140215320FFF7CAF811E00B4816
:101DC0000078802804D160215320FFF7C1F808E093
:101DD00060215320FFF7BCF803E060215320FFF798
:101DE000B7F810BD0C010020100100200E010020EA
:101DF00010B56021FF20FFF7ABF80020FFF796F841
:101E0000162808D10120FFF791F8042803D104A077
:101E100003F088FE02E008A003F084FE10BD00007D
:101E20000D0A436869704944206973204F4B3A306A
:101E300078313630340000000D0A43686970494437
:101E4000204661696C2121212100000010B580210C
:101E5000FF20FFF77DF84420FFF768F800F0080046
:101E600000285AD03148007800283FD101202F495E
:101E700008706021FF20FFF76BF89720FFF756F8F6
:101E8000044604F03F019720FFF762F88021FF200D
:101E9000FFF75EF800211B20FFF75AF800F05FFC07
:101EA0006021FF20FFF754F8FD210E20FFF750F8C6
:101EB000FF210E20FFF74CF80520FEF777FC80216C
:101EC000FF20FFF745F88720FFF730F800F01004F7
:101ED00044B11748007818B901201549087010BDA1
:101EE0000020FCE7002012490870F8E78021FF205D
:101EF000FFF72EF88720FFF719F800F0100444B11F
:101F00000B48007818B9012009490870E7E700205C
:101F1000E5E7002006490870E1E700200349087062
:101F2000034908700349087000BFD8E70701002083
:101F3000080100200901002010B58021FF20FFF7D3
:101F400007F87120FEF7F2FF00F0600058B360213F
:101F5000FF20FEF7FDFF8C210720FEF7F9FF80210F
:101F6000FF20FEF7F5FF7120FEF7E0FF00F06000B4
:101F7000202808D16021FF20FEF7EAFF012152202E
:101F8000FEF7E6FF07E06021FF20FEF7E1FF0021FA
:101F90005220FEF7DDFF0A4800784030C1B25320DE
:101FA000FEF7D6FF0BE06021FF20FEF7D1FF802176
:101FB0000720FEF7CDFF00215320FEF7C9FF10BD1B
:101FC000D6000020012016490870802015490870AD
:101FD000002015490870154908700120144908703F
:101FE000002014490870302013490870112013494B
:101FF0000870012012490870002012490870124927
:102000000870124908701249087012490870124984
:10201000087012490870402011490870704700008C
:10202000D0000020D1000020D2000020D3000020EA
:10203000D4000020D5000020D6000020D7000020CA
:10204000D8000020D9000020DA000020DB000020AA
:10205000DC000020DD000020DE000020DF0000208A
:10206000E000002010B504468021FF20FEF770FF3D
:1020700007218E20FEF76CFF00218F20FEF768FFFE
:1020800034B94FF4807208499020FEF773FF05E0E1
:102090004FF4807221469020FEF76CFF02218E20C3
:1020A000FEF756FF10BD00003401002008B50121E5
:1020B000082000F0F9FC0121082000F0F5FC0121C6
:1020C000082000F0F1FC0121212000F0EDFC0121AD
:1020D000082000F0E9FC002000F07CFE6846FEF7D6
:1020E00003FF0820ADF8000010208DF80300022047
:1020F0008DF8020069462B48FEF732FC6846FEF771
:10210000F3FE0120ADF8000004208DF8030002204A
:102110008DF8020069462348FEF722FC6846FEF768
:10212000E3FE4FF48070ADF8000010208DF803003E
:1021300002208DF8020069461A48FEF711FC0121C1
:10214000C803FEF799FC6846FEF7CEFE0120ADF805
:10215000000002208DF8020010208DF8030069466F
:102160001148FEF7FDFB4FF480710E48FEF7BAFEF2
:1021700001210D48FEF7B4FE6846FEF7B5FE0220C9
:10218000ADF8000010208DF8030002208DF8020049
:1021900069460448FEF7E4FB02210248FEF7A2FE6E
:1021A00008BD0000000C01400014014010B50020E3
:1021B00000F0E2FE012000F015FF012000F0F7FE24
:1021C00010BD000010B58021FF20FEF7C1FE73484E
:1021D000007801282DD172480078012829D11320D8
:1021E000FEF7A4FE00F0010000B36E48007800BBCB
:1021F00001206C49087008460078D0B16021FF20AA
:10220000FEF7A6FE0D20FEF791FE044604F0F8014D
:102210000D20FEF79DFE44F006010D20FEF798FE0E
:1022200044F001010D20FEF793FE02E000205D491D
:1022300008705C480078002855D01320FEF776FE21
:102240000446C4F340005849087008460078002846
:102250007BD07420FEF76AFE00F07F0053490870BF
:102260007120FEF763FE00F06000514908701620EF
:10227000FEF75CFE00F0F0004E4908707220FEF799
:1022800055FE00F0C0004C4908707320FEF74EFE6A
:1022900000F07000494908707320FEF747FE00F017
:1022A0000C00474908707520FEF740FE00F00F0053
:1022B0004449087008460078012815D16021FF20A4
:1022C000FEF746FE9720FEF731FE044644F040013B
:1022D0009720FEF73DFE8021FF20FEF739FE2021EA
:1022E0001B20FEF735FE58E036480078032815D14C
:1022F0006021FF20FEF72CFE9720FEF717FE044614
:1023000044F080019720FEF723FE8021FF20FEF796
:102310001FFE60211B20FEF71BFE3EE06021FF2018
:10232000FEF716FE9720FEF701FE044604F03F017B
:102330009720FEF70DFE8021FF20FEF709FE002109
:102340001B20FEF705FE28E0FFE700201749087074
:102350001749087017490870802017490870002035
:1023600016490870082016490870002015490870A1
:102370006021FF20FEF7ECFD9720FEF7D7FD044615
:1023800004F03F019720FEF7E3FD8021FF20FEF7D8
:10239000DFFD00211B20FEF7DBFD10BD0701002043
:1023A00008010020090100200A0100200B01002083
:1023B0000C0100200D0100200E0100200F01002063
:1023C000100100201101002000B585B00121880511
:1023D00000F04AFB0121042000F066FB01210820E7
:1023E00000F062FB0121084600F05EFB01211D4860
:1023F000FEF742FB4FF48070ADF8100002208DF81C
:1024000012001C208DF8130004A91748FEF7A8FA43
:102410001020ADF8100002208DF812001C208DF85D
:10242000130004A91148FEF79BFA1148FEF7ECFDD2
:102430000020ADF804004BF6FF70ADF80600FF2059
:10244000ADF808004FF48060ADF80A000001ADF867
:102450000C000848009069460548FEF72BFE05B0C1
:1024600000BD00002201008000080140000C014076
:1024700000580040400D030010B58021FF20FEF7FA
:1024800067FD2C20FEF752FD40F0300421462C2041
:10249000FEF75EFD6021FF20FEF75AFD0821802037
:1024A000FEF756FD024801788920FEF751FD10BD68
:1024B000D100002008B50121042000F0F5FA68469B
:1024C000FEF712FD0320ADF8000010208DF8030088
:1024D00002208DF8020069460548FEF741FA012105
:1024E0000348FEF7FDFC02210148FEF7FBFC08BD96
:1024F0000008014010B56021FF20FEF729FDE7210B
:102500000620FEF725FD6021FF20FEF721FD0D20AE
:10251000FEF70CFD00F0FB0421460D20FEF718FD30
:102520000520FEF743F90D20FEF700FD40F00404FE
:1025300021460D20FEF70CFD6021FF20FEF708FD6F
:1025400053480078534A12781044534A1278104482
:10255000524A12781044524A12781044514A127862
:102560001044C1B25920FEF7F3FC4C48007820B962
:1025700000215F20FEF7ECFC03E038215F20FEF72E
:10258000E7FC5821A020FEF7E3FC47480178A4208F
:10259000FEF7DEFC0021A820FEF7DAFC1821BA20A5
:1025A000FEF7D6FC1821C020FEF7D2FC6621B02031
:1025B000FEF7CEFC6621B120FEF7CAFC6621B220F0
:1025C000FEF7C6FC6621B320FEF7C2FC6621B420EC
:1025D000FEF7BEFC4121B520FEF7BAFC4121B62032
:1025E000FEF7B6FC4121B720FEF7B2FC4C21B82023
:1025F000FEF7AEFC4121B920FEF7AAFC4121BB2029
:10260000FEF7A6FC4121BC20FEF7A2FC4121BD2023
:10261000FEF79EFC4C21BE20FEF79AFC4121BF2014
:10262000FEF796FC1821A020FEF792FCB021A12015
:10263000FEF78EFC1021A220FEF78AFC1A480178D2
:102640005C20FEF785FC3220FEF7B0F86021FF2009
:10265000FEF77EFC7F210620FEF77AFCFE210E208D
:10266000FEF776FCFB210D20FEF772FC0520FEF73D
:102670009DF8FF210D20FEF76BFCFF210620FEF7E1
:1026800067FCFF210E20FEF763FCFFF755FC10BD31
:10269000DF000020E0000020DB000020DC00002044
:1026A000DD000020DE000020DA00002070B50024EC
:1026B00000258021FF20FEF74BFC5021B220FEF7C1
:1026C00047FC7721A320FEF743FC0BE0681CC5B252
:1026D0003220FEF76BF8C020FEF728FC00F008045B
:1026E00004B101E0052DF1DD00BFD021B220FEF7DD
:1026F0002FFC5721A320FEF72BFC0CB1012070BD4D
:102700000020FCE770B500258021FF20FEF720FCAB
:102710001CE06021FF20FEF71BFC0E20FEF706FCEC
:10272000044604F0FD010E20FEF712FC0520FDF723
:10273000F1FFFF210E20FEF70BFC8021FF20FEF7AA
:1027400007FC681CC5B2032D00DD06E08720FEF7FC
:10275000EDFB00F020000028DBD000BF70BD10B5FD
:102760006021FF20FEF7F4FBBF210E20FEF7F0FBF7
:10277000FD210920FEF7ECFB0A20FEF717F8FF21E8
:102780000E20FEF7E5FBFF210920FEF7E1FB6021AB
:10279000FF20FEF7DDFBC7210E20FEF7D9FB0F213E
:1027A0000920FEF7D5FB0A20FEF700F8FF210E20D6
:1027B000FEF7CEFB0A20FDF7F9FF8F210920FEF777
:1027C000C7FB0A20FDF7F2FFFF210920FEF7C0FB3F
:1027D0003220FDF7EBFF10BD10B508210648FEF7CB
:1027E0007FFB6420FDF7E2FF08210348FEF77AFB38
:1027F0003220FDF7DBFF10BD000C014070B5044630
:102800008021FF20FEF7A4FB4CB10620FEF78EFBD3
:1028100040F0080529460620FEF79AFB08E006204E
:10282000FEF784FB00F0F70529460620FEF790FB33
:1028300070BD000010B55248007828B900205149F9
:1028400008805149088010BD6021FF20FEF780FB01
:102850002220FEF76BFB00024C4908802320FEF784
:1028600065FB4A4909880844484908802020FEF74A
:102870005DFB00F00F004FF6FF7101EA00204449B4
:1028800008802120FEF752FB41490988084440494D
:1028900008801020FEF74AFB00043E490860112022
:1028A000FEF744FB3B49096801EB00203949086009
:1028B0001220FEF73BFB3749096808443549086098
:1028C0001420FEF733FB00F00F004FF6FF7101EA12
:1028D0000020314908801520FEF728FB2E49098881
:1028E00008442D4908801320FEF720FB2B4908805F
:1028F0001820FEF71BFB00F00F004FF6FF7101EAF6
:102900000020274908801920FEF710FB2449098878
:102910000844234908801620FEF708FB2149088057
:102920001E20FEF703FB0002164908801F20FEF759
:10293000FDFA144909880844124908801C20FEF752
:10294000F5FA00F00F004FF6FF7101EA00200E4982
:1029500008801D20FEF7EAFA0B49098808440A4955
:1029600008802420FEF7E2FA044604F001000E4934
:102970000870C4F340000D49087000BF63E7000011
:1029800009010020280100202A0100201C0100204C
:102990001E01002030010020200100202201002023
:1029A00024010020260100202C0100202D01002000
:1029B00000BFFEE77047000070B5002100230F2222
:1029C000C47804B3154C246804F4E064C4F5E064EE
:1029D000210AC1F10403CA40447804FA03F184785F
:1029E0001440214309010E4C0678A155047804F0E7
:1029F0001F050124AC4005786D11AD0005F1E025FF
:102A0000C5F8004109E0047804F01F050124AC403A
:102A1000044D0678761145F8264070BD0CED00E0B7
:102A200000E400E080E100E0704700000146002083
:102A3000034A5068034A10400843014A50607047F7
:102A400000100240FF3FFFEF29B1064A52690243DE
:102A5000044B5A6104E0034A52698243014B5A61B4
:102A6000704700000010024029B1064AD2690243B3
:102A7000044BDA6104E0034AD2698243014BDA6114
:102A8000704700000010024029B1064A1269024353
:102A9000044B1A6104E0034A12698243014B1A6134
:102AA000704700000010024029B1064A92690243B3
:102AB000044B9A6104E0034A92698243014B9A6194
:102AC000704700000010024029B1064AD268024354
:102AD000044BDA6004E0034AD2688243014BDA60B7
:102AE00070470000001002402DE9F84F0025002635
:102AF0000027AC460024A046A146002200218A46B9
:102B0000CDF800A00023DFF8B0A2DAF804A00AF0A4
:102B10000C0222B1042A07D0082A70D109E0DFF89C
:102B20009CA2C0F800A0D1E0DFF890A2C0F800A0FD
:102B3000CCE0DFF884A2DAF82CA00AF00045B5F169
:102B4000004F74D1DFF870A2DAF82CA00AF0E0662A
:102B5000DFF864A2DAF82CA00AF47F47DFF858A265
:102B6000DAF82CA00AF0F00CDFF84CA2DAF82CA06E
:102B70000AF0070400BFB6F1407F18D007DC6EB141
:102B8000B6F1807F0DD0B6F1007F19D10CE0B6F11F
:102B9000806F0FD0B6F1A06F12D10EE04FF0040895
:102BA00011E04FF006080EE04FF008080BE04FF080
:102BB0000C0808E04FF0100805E04FF0190802E09B
:102BC0004FF0000800BF00BF00BF00BF062C17D2A7
:102BD000DFE804F00306090C0F124FF0010912E0C0
:102BE0004FF002090FE04FF004090CE04FF0080924
:102BF00009E04FF0100906E04FF0200903E060E023
:102C00004FF0010900BF00BF00BF4FEA172A0AFBBF
:102C100008FA4FEA1C1B0BFB09FBBAFBFBFADFF8B7
:102C2000A0B10AFB0BFAC0F800A049E0FFE7DFF80B
:102C300088A1DAF804A0DFF88CB10AEA0B01DFF80A
:102C400078A1DAF804A00AF4803ACDF800A001F0E7
:102C5000C04ABAF1000F07D101F4701ABAF5701F1B
:102C600002D04FF0020A01E04FF0010A01F0C04B20
:102C7000C1F3834E4EEA5B6B0AEB0B01DDF800A05B
:102C8000BAF1000F06D1DFF840A101FB0AFAC0F843
:102C900000A015E0DFF820A1DAF804A00AF4003A59
:102CA000BAF1000F06D0DFF820A101FB0AFAC0F844
:102CB00000A005E0DFF804A101FB0AFAC0F800A0BB
:102CC00004E0DFF8F8A0C0F800A000BF00BFDFF804
:102CD000E8A0DAF804A0CAF30212DFF8DCA0DAF800
:102CE00004A00AF0800ABAF1000F04D0DFF8DCA0DB
:102CF0001AF802A001E04FF0000A5346D0F800A0F5
:102D00002AFA03FAC0F804A0DFF8ACA0DAF804A0AD
:102D1000CAF30122DFF8A0A0DAF804A00AF4806A5E
:102D2000BAF1000F04D0DFF8A4A01AF802A001E065
:102D30004FF0000A5346D0F804A02AFA03FAC0F86C
:102D400008A0DFF874A0DAF804A0CAF3C122DFF803
:102D500068A0DAF804A00AF4005ABAF1000F04D00F
:102D6000DFF868A01AF802A001E04FF0000A53460D
:102D7000D0F804A02AFA03FAC0F80CA0DFF838A0B3
:102D8000DAF804A0CAF38132DFF82CA0DAF804A044
:102D90000AF0805ABAF1000F01D042F00402DFF8C5
:102DA00030A01AF80230D0F80CA0BAFBF3FAC0F841
:102DB00010A0BDE8F88F00000010024000127A0059
:102DC00040420F0000003C6000093D004C02002022
:102DD000540200201149096821F480310F4A116022
:102DE0001146096821F480211160B0F5803F03D0BD
:102DF000B0F5802F0ED106E00849096841F4803112
:102E0000064A116007E00549096841F4A021034A18
:102E1000116000E000BF00BF7047000000100240DA
:102E2000012806D10649496D41F03001044A516537
:102E300005E00349496D21F03001014A51657047B1
:102E40000010024001460020034A506820F00C6048
:102E5000084350607047000000100240704710B5F2
:102E600000F002F810BD00001CB500200190009099
:102E70003D48006840F001003B49086000BF3A4807
:102E8000006800F0020000900198401C019000983A
:102E900020B94FF6FF7101988842F0D1324800689E
:102EA00000F0020010B10120009001E0002000902D
:102EB0000098012857D12D48006840F010002B4998
:102EC00008600846006820F00700086008460068AF
:102ED00040F00400086024484068234948600846E0
:102EE000406820F4605048600846406840F4005054
:102EF00048600846406820F4E06048600846406842
:102F000040F4806048600846406819490840164906
:102F10004860084640681749084313494860084616
:102F2000006840F08070086000BF0F48006800F043
:102F300000700028F9D00120FFF772FF0A484068AE
:102F400020F00300084948600846406840F002004D
:102F5000486000BF0448406800F00C000828F9D120
:102F60000020FFF75DFF1CBD001002400020024062
:102F7000FFFFC01F00000C4070B504466021FF2019
:102F8000FDF7E6FF4CB18120FDF7D0FF40F03005A2
:102F900029468120FDF7DCFF08E08120FDF7C6FF10
:102FA00000F00F0529468120FDF7D2FF70BD70B5F6
:102FB00004466021FF20FDF7CBFF4CB14A20FDF70E
:102FC000B5FF40F0800529464A20FDF7C1FF08E023
:102FD0004A20FDF7ABFF00F07F0529464A20FDF7A8
:102FE000B7FF70BD70B504466021FF20FDF7B0FF4C
:102FF0004CB18120FDF79AFF40F00305294681205E
:10300000FDF7A6FF08E08120FDF790FF00F0F00536
:1030100029468120FDF79CFF70BD000010B51A48BD
:1030200000681A4A811A904218D007DC18490844EF
:1030300058B14FEA61010844F8B90BE0154808445B
:1030400088B114490844C0B912E04FF48000FFF77A
:10305000F9FE13E00020FFF7F5FE0FE04FF440000B
:10306000FFF7F0FE0AE04FF40000FFF7EBFE05E08B
:103070004FF00460FFF7E6FE00E000BF00BF012153
:103080000803FFF7E1FC10BD3802002000D8B805A6
:10309000009423FD00CA91FE042808D14FF0E021DE
:1030A000096941F004014FF0E022116107E04FF09F
:1030B000E021096921F004014FF0E022116170471D
:1030C0007047000010B501210807FFF7CDFC1D482F
:1030D000007840F004001B49503981F8500000216D
:1030E0004FF08050FFF7C0FC1748006840F0010027
:1030F000154908600846406814490840124948606C
:1031000008460068124908400F49086008460068F0
:1031100020F480200860084640680E4908400A49AB
:1031200048600846006B0C490840074908634FF4A3
:103130001F008860FFF793FE4FF0006007490860AA
:1031400010BD000050700040001002400C00FFE86D
:10315000FFFFF6FEFFFF001700FFFEFE08ED00E098
:1031600000B501F03FFB00BD21B1028842F0010231
:10317000028004E002884FF6FE731A400280704716
:1031800031B1B0F8442042F40042A0F8442005E0F8
:10319000B0F84420C2F30E02A0F84420704770B586
:1031A000002400220023058C4FF6FF66354005847D
:1031B000028C8388848B4FF68F752C404FF6FC75FC
:1031C0002C400D882C434FF6FF552A408D894FF631
:1031D000FF7606EA05252A434D8806EA05252A4397
:1031E0004FF2FF752A40CD8906EA05252A434FF69E
:1031F000FF352A408D8806EA05252A434EF6FF75DD
:103200002B404DF6FF752B400D8A06EA05152B4322
:103210004D8A06EA05152B43838084838D68C56338
:10322000028470BD002101804180818081608181A4
:10323000C181018241827047C163704700220288C8
:103240000F4B98420BD0B0F1804F08D00D4B9842F5
:1032500005D00D4B984202D00C4B984205D14FF649
:103260008F731A408B8813439AB202808B68C362B3
:103270000B8803858B7B03860123838270470000C4
:10328000002C01400004004000080040000C0040F9
:103290004FF6FF718160002101808181416081735F
:1032A0007047000008B501210820FFF7FDFB012150
:1032B0000420FFF7F9FB01210420FFF7F5FB0121B2
:1032C0000820FFF7F1FB01210846FFF7EDFB012184
:1032D0004806FDF7D1FB6846FDF706FE4FF4807007
:1032E000ADF8000010208DF8030002208DF80200D8
:1032F00069463648FDF734FB6846FDF7F5FD0420C6
:10330000ADF8000010208DF8030002208DF80200B7
:1033100069462F48FDF724FB6846FDF7E5FD4FF4AD
:103320000040ADF8000010208DF8030002208DF859
:10333000020069462648FDF713FB6846FDF7D4FDF9
:103340002020ADF8000010208DF8030002208DF839
:10335000020069461D48FDF703FB4FF480711B48CE
:10336000FDF7C0FD4FF400411948FDF7B9FD2021DC
:103370001648FDF7B5FD0520FDF7CCF920211348CF
:10338000FDF7B0FD0520FDF7C5F94FF400411048E9
:10339000FDF7A8FD0A20FDF7BDF920210B48FDF738
:1033A0009FFD5020FDF7B6F96846FDF79DFD2020F2
:1033B000ADF8000004208DF8030002208DF8020013
:1033C00069460248FDF7CCFA08BD0000000C014038
:1033D0000008014010B586B000208DF810000120D3
:1033E00048F24E1304AA282100905A48FEF7B0F87C
:1033F00018B14FF0FF3006B010BD002004900590CA
:10340000042048F2401304AA282100905148FDF7F7
:10341000C5FE04A950A002F085FB54A104A8FCF746
:10342000C3FE50B152A104A8FCF7BEFE28B151A1C1
:1034300004A8FCF7B9FE00287AD102208DF810000C
:10344000012048F2400304AA282100904148FEF7D9
:103450007FF80A20FDF75EF900208DF810000120AA
:1034600048F2400304AA282100903A48FEF770F879
:10347000002004900590072048F2470304AA282161
:1034800000903448FDF78AFE9DF810003B49087013
:103490009DF812003A490880084600884FF6FF71EF
:1034A00001EA0020364908809DF811000988084388
:1034B000334908809DF81400324908800846008886
:1034C0004FF6FF7101EA00202E4908809DF8130095
:1034D000098808432B4908809DF8150000F00F006B
:1034E000294908709DF81600C0F3C00027490870EC
:1034F0009DF8160000F00300254908709DF816009D
:103500000978224A1278204B1B78CDE90032CDE9A8
:1035100002101C4803881A480288184801781D4880
:1035200002F000FB00201C4981F83700002409E06C
:103530000CE004EB84011848401C084400210160A1
:103540000171641C052CF4DB002054E74FF0FF30C0
:1035500051E7000000540040544F55434820446553
:10356000766963653A2025732000000039323800FF
:10357000393131003931353700000000C5000020F5
:10358000C6000020C8000020CA000020CB00002098
:10359000CC000020506900089C1300200EB50020CC
:1035A000009001210846FFF77FFA05210120FDF771
:1035B000B7F901A8FDF7ACF92020FDF745F9202067
:1035C000019000208DF808000C208DF809000120E2
:1035D0008DF80A0001A8FDF751F917208DF80000B9
:1035E00003208DF801008DF8020001208DF8030002
:1035F0006846FFF7E1F90EBD10B55520084908707F
:10360000002081F8340081F8340081F834000A2069
:1036100081F833003822034802F0F4FF10BD0000A7
:103620009C1300207406002010B586B004460121CA
:103630000420FFF739FA01218803FFF735FA05A8BE
:10364000FDF752FC4FF40070ADF8140002208DF825
:10365000160018208DF8170005A91748FDF780F906
:103660004FF48060ADF8140004208DF8170005A910
:103670001148FDF775F901A800F0D0F80194002079
:10368000ADF80800ADF80A00ADF80C00ADF8100078
:103690000C20ADF80E0001A9084800F04FF80122F7
:1036A00040F22551054800F024F80121034800F0BC
:1036B00007F806B010BD00000008014000380140C6
:1036C00021B1828942F40052828104E082894DF660
:1036D000FF731A408281704702460020B1F5007FD7
:1036E00000D100BF13880B400BB1012000E0002087
:1036F0007047F0B50346002400260025002040F660
:103700006A17B94200D100BF1846C1F3421401F054
:103710001F06012707FA06F5012C01D10C3004E041
:10372000022C01D1103000E014301AB107682F4389
:10373000076002E00768AF430760F0BD2DE9F0477E
:1037400086B005460E460024A24600BFA1460027CB
:10375000B08900B100BF2F462C8A4CF6FF700440A0
:10376000F08804432C82AC894EF6F3100440B088F4
:1037700031890843718908430443AC81AC8A4FF610
:10378000FF400440B0890443AC8201A8FFF7ACF9C4
:103790001F48874202D1DDF810A001E0DDF80CA03F
:1037A000A88900F4004040B10AEBCA0000EB0A10FF
:1037B00031684900B0FBF1F807E00AEBCA0000EB02
:1037C0000A1031688900B0FBF1F86420B8FBF0F012
:1037D00004012009642101FB1089A88900F400403C
:1037E00040B1322000EBC900B0FBF1F000F007005F
:1037F000044308E0322000EB09106421B0FBF1F033
:1038000000F00F0004432C8106B0BDE8F0870000F3
:1038100000380140C1F30802828070474FF416510E
:10382000016000218180C18001810C214181002142
:103830008181704710B5024800F065F910BD0000A5
:103840007406002010B54FF48020FCF7FDFF10BD7A
:1038500070B506460C4604F08000802808D104F0BC
:103860007F0000EB800106F58E7000EBC10507E0DC
:1038700004F07F0000EB800106F55D7000EBC105F0
:1038800004F07F00287004F08000C00968702946A9
:10389000304601F074FA002070BD70B506460C4643
:1038A00004F08000802808D104F07F0000EB800144
:1038B00006F58E7000EBC10505E004EB840106F50A
:1038C0005D7000EBC1050020A87004F07F00287037
:1038D000C4F3C01068702946304601F028FA002071
:1038E00070BD70B505460C4604F08000802805D1F7
:1038F00004F07F01284601F029FC02E0284601F08F
:10390000FFFB002070BD2DE9F04106460D469046B4
:103910001F4605F08000802808D105F07F0000EBED
:10392000800106F58E7000EBC10407E005F07F0012
:1039300000EB800106F55D7000EBC10405F07F002F
:10394000207005F08000C0096070C4F80880E7703E
:10395000607808B12078E080022F01D1002020712A
:103960002146304601F097F90020BDE8F0812DE9AD
:10397000F04106460D461746984605F07F0000EBDD
:10398000800106F55D7000EBC104E760C4F81480A7
:103990000020A061607005F07F002070207820B9C1
:1039A0002146304601F0CBF803E02146304601F0D5
:1039B00047FA0020BDE8F08108B500220092009A85
:1039C00061F30A12009202691268009B1A430369AC
:1039D0001A6008BD70B506460C4604F080008028C9
:1039E00008D104F07F0000EB800106F58E7000EB3B
:1039F000C10505E004EB840106F55D7000EBC1052F
:103A00000120A87004F07F002870C4F3C010687013
:103A10002946304601F0E2F9002070BD2DE9F04161
:103A200007460D461646984605F07F0000EB8001DC
:103A300007F58E7000EBC1040120607005F07F0077
:103A40002070E66026610020A061C4F81480207810
:103A500020B92146384601F072F803E02146384685
:103A600001F0EEF90020BDE8F0812DE9F0410646B5
:103A70000F463946304601F002FC01214FF48970AF
:103A800081550021801C8155002511E005EB850141
:103A900006F58E7000EBC104012060702570E58092
:103AA0000020E0704020A0600020E06060616D1C9C
:103AB0007078A842EAD8002510E005EB850106F5EC
:103AC0005D7000EBC104002060702570E580E0703F
:103AD0004020A0600020E06060616D1C7078A8420A
:103AE000EBD8304600F0E0FF304600F088FE0021C1
:103AF000304601F01CFC304600F0B9FE304601F0C3
:103B0000EDFABDE8F0817CB505460024284601F0B9
:103B100075FB002865D0284601F07BFB01900198D9
:103B200008B900207CBD0198C0F3C04018B12846F8
:103B300001F02AFE04430198C0F3804018B12846E2
:103B400001F070FD04430198C0F3400050B1002023
:103B50000090009820F00200801C00900098E96816
:103B6000486100BF0198C00F18B1284601F066FEF9
:103B700004430198C0F3C02018B1284601F002FFA9
:103B800004430198C0F3C00018B1284601F0E4FED8
:103B900004430198C0F3001018B1284601F084FED8
:103BA00004430198C0F3003018B1284601F036FFF5
:103BB00004430198C0F3403018B1284601F066FC78
:103BC00004430198C0F3005018B1284601F0B0FD3D
:103BD00004430198C0F3405018B1284601F0BEFDDF
:103BE000044320469EE7000070B505460C462DB9FB
:103BF0002246064906A000F0E5FA04E02246034901
:103C000003A000F0DFFA014870BD00004813002057
:103C100048494420436F6E666967000070477047EB
:103C20000246122008800148704700004C00002026
:103C3000704710B1012802D100E001E000E000BFB0
:103C400000BF7047704770471CB501210420FEF784
:103C50002BFF01A8FDF748F94FF48070ADF8040080
:103C600004208DF8070001A91048FCF779FE01A88F
:103C7000FDF73AF94FF40040ADF8040048208DF804
:103C8000070001A90948FCF76BFE43208DF80000EE
:103C900001208DF8010003208DF8020001208DF82D
:103CA00003006846FEF788FE1CBD000000080140C6
:103CB00070B505460C462DB92246064906A000F00F
:103CC00081FA04E02246034903A000F07BFA014890
:103CD00070BD00004813002048494420496E7465B7
:103CE0007266616365000000024604200880014896
:103CF000704700006800002070B505460C4622465B
:103D0000024903A000F05EFA004870BD481300208D
:103D10004851456D6265640070B505460C462DB985
:103D20002246064906A000F04DFA04E02246034967
:103D300003A000F047FA014870BD000048130020BE
:103D40004D756C74692D546F7563680070B50546C8
:103D50000C461A202080FDF7CFF8014870BD000006
:103D60006C00002070B504460D46D4F8E4052946E1
:103D7000426820469047002070BD70B504460D464D
:103D80004FF48970005D022802D0032812D100E0B0
:103D900000BF688801280CD100214FF48C700151BC
:103DA000D4F8E4052946826820469047204600F072
:103DB0005EF804E02946204600F003F800BF00BF8B
:103DC00070BD70B504460D4680212046FFF702FE07
:103DD00000212046FFF7FEFD204600F044FF70BDA5
:103DE0002DE9F04106460C46154600272B46224693
:103DF00000213046FFF7BBFD3846BDE8F0812DE9D4
:103E0000F04106460C46154600272B462246002167
:103E10003046FFF703FE3846BDE8F08170B5044632
:103E20000025052140F21110015500231A461946BC
:103E30002046FFF79CFD204600F015FF284670BD88
:103E40002DE9F04104460E4615460027C4F83C51C2
:103E5000C4F83851022140F2111001552B46324668
:103E600000212046FFF7DAFD3846BDE8F08170B545
:103E700004460025042140F21110015500231A4682
:103E800019462046FFF7CAFD204600F0ECFE284602
:103E900070BD70B505460E46002E56D105F58E74E0
:103EA00040F21110405D022842D1A168E0698842C9
:103EB00010D9A168E069401AE061A08B82B228465F
:103EC000E168FFF79CFF00231A4619462846FFF7D2
:103ED0004EFD2DE0A168206AB0FBF1F201FB12005B
:103EE000A8B9A168206A884211D3D4E908018842A0
:103EF0000DD2002211462846FFF781FF00206062A4
:103F000000231A4619462846FFF731FD10E0D5F880
:103F1000E405C06848B14FF48970405D032804D1BE
:103F2000D5F8E405C168284688472846FFF776FF9C
:103F30004FF48B70405D012816D1284600F0EAF955
:103F400000214FF48B7041550EE0D5F8E40540692F
:103F500050B14FF48970405D032805D1D5F8E405D0
:103F60003146426928469047002070BD70B505462D
:103F70000E466EBB05F55D7440F21110405D0328DE
:103F800035D1A168E069884210D9A168E069401A7A
:103F9000E061A368E069984201D2E06900E0A068AE
:103FA00082B22846E168FFF71BFF20E0D5F8E40560
:103FB000006948B14FF48970405D032804D1D5F8F9
:103FC000E4050169284688472846FFF750FF0EE0C0
:103FD000D5F8E405806950B14FF48970405D03283D
:103FE00005D1D5F8E405314682692846904700207E
:103FF00070BD000070B504460D46E888012804D065
:1040000029462046FFF7DDFE1AE04FF48970005D77
:10401000022802D003280DD105E0012209492046DB
:10402000FFF70EFF0BE0012204F588712046FFF731
:1040300007FF04E029462046FFF7C3FE00BF00BF8C
:1040400070BD0000E8020020F8B504460E46F08876
:10405000009070880012082864D2DFE800F0630442
:104060000C186363575EA078D4F8EC150A686946AB
:10407000904705465BE0A078D4F8E4158A6A694663
:104080009047054602216970C4F8F0554FE0B078BA
:10409000062834D2DFE800F0030B131B232BA07893
:1040A000D4F8EC154A686946904705462CE0A0789C
:1040B000D4F8EC158A6869469047054624E0A07854
:1040C000D4F8EC15CA686946904705461CE0A0780C
:1040D000D4F8EC150A6969469047054614E0A078C3
:1040E000D4F8EC154A696946904705460CE0A0787B
:1040F000D4F8EC158A6969469047054604E03146D4
:104100002046FFF75EFEF8BD00BF10E0D4F8E405DE
:10411000C16A68468847054609E031462046FFF7F0
:1041200050FEF0E731462046FFF74BFEEBE700BFBD
:10413000BDF8000088B1F08878B1F088BDF80010B3
:10414000884202DDBDF8000000E0F0880090BDF874
:10415000002029462046FFF773FE00BFD3E7014643
:10416000002002E0421CD0B2491C0A78002AF9D192
:104170007047000070B504460D464FF48970005D2D
:10418000022802D0032813D100E000BF01200C490F
:1041900008604FF48C70005920B10846006840F068
:1041A00002000860022206492046FFF749FE04E0AB
:1041B00029462046FFF705FE00BF00BF70BD000086
:1041C000EC0200202DE9F04104460D46174600267A
:1041D000FCB12046FFF7C3FF022101EB400038800D
:1041E0003A783046711CCEB22A5403223046711CF4
:1041F000CEB22A540AE014F8012B3046711CCEB21C
:104200002A5400223046711CCEB22A54207800284D
:10421000F1D1BDE8F0812DE9F04104460F46154685
:104220001E46DDF81880204600F0D6FA204600F041
:1042300046F8C4F8E465C4F8E885C4F8EC55394696
:104240002046FFF712FCD4F8E81508688047BDE85F
:10425000F08110B50446D4F8E405016A2046884789
:10426000002010BD10B50446D4F8E405416A20468C
:104270008847002010BD90F8CC250A7090F8CD2515
:104280004A7090F8CE3590F8CF2503EB02224A8091
:1042900090F8D03590F8D12503EB02228A8090F86F
:1042A000D23590F8D32503EB0222CA80CB884FF495
:1042B000A0721350012340F21112135470470146AB
:1042C0000020704710B50446D4F8E8150869804707
:1042D00040F21310015D401E0155032101550020DD
:1042E00010BD10B504460023402219462046FFF7B2
:1042F0000AFB0023402280212046FFF704FB012116
:104300004FF489700155A078D4F8E82551688847A2
:10431000002010BD01460348026808694260002081
:1043200070470000B002002070B504460D46A88812
:1043300018BBE88808BBA87800F07F064FF48970A6
:10434000005D032804D129462046FFF73AFD18E016
:104350004FF48A70065531462046FFF72DFB204664
:10436000FFF785FD26B102214FF48970015508E061
:1043700001214FF48970015503E029462046FFF7DB
:1043800020FD70BD70B504460D46D4F8E4052946FD
:10439000026820469047D4F8E815886880470020D6
:1043A00070BD000070B504460D46A878304908700D
:1043B00008460078012804DD29462046FFF701FD64
:1043C00055E04FF48970005D022802D0032848D1DF
:1043D00017E02748007880B12548007884F810015C
:1043E00003214FF489700155214801782046FFF7D9
:1043F000C9FF2046FFF73BFD02E02046FFF737FDEF
:1044000034E01B48007880B902214FF489700155CF
:104410001748007884F81001154801782046FFF706
:10442000A1FC2046FFF723FD1AE094F81001104983
:104430000978884211D094F810112046FFF792FCB9
:104440000B48007884F81001094801782046FFF7EE
:1044500099FF2046FFF70BFD02E02046FFF707FD1E
:1044600004E029462046FFF7ACFC00BF00BF70BD4A
:10447000F0020020F8B504460D46002668880128A1
:104480000DD101214FF48C700151D4F8E405294677
:104490008268204690472046FFF7E9FC3FE06888A5
:1044A00002283CD12879D0BB206940680090A888B8
:1044B0000612062E22D2DFE806F02103090F151B93
:1044C000009820F07000103000901DE0009820F05F
:1044D00070002030009017E0009820F0700030301D
:1044E000009011E0009820F07000403000900BE048
:1044F000009820F070005030009005E0009820F007
:1045000070001030009000BF00BF054800990160A6
:1045100001214FF48B7001552046FFF7A8FCF8BD30
:10452000B00200201CB5044669462046FFF7A3FEF2
:104530009DF8000000F01F0020B1012807D00228DC
:1045400013D109E06946204600F01AF815E06946E3
:10455000204600F00BF910E0BDF80400812803D1DB
:104560006946204600F046F807E09DF8000000F09C
:1045700080012046FFF72EFA00BF00BF00201CBDBF
:1045800070B505460C46002660780A2829D2DFE877
:1045900000F01923281E280A0528140F2146284652
:1045A000FFF752FD22E021462846FFF7BDFE1DE041
:1045B00021462846FFF7F6FE18E021462846FFF779
:1045C00019FD13E021462846FFF7D4FD0EE02146F1
:1045D0002846FFF74FFF09E021462846FFF7CDFBAD
:1045E00004E021462846FFF7ECFB00BF00BF304641
:1045F00070BD00002DE9F04105460E4600273479D4
:10460000307800F06000202808D1D5F8E405314664
:104610008268284690473846BDE8F08170780028C7
:1046200057D001282BD0032875D14FF48970405DF5
:10463000022802D003281BD107E02CB1802C03D024
:1046400021462846FFF7C6F917E0708830B92CB12B
:10465000802C03D021462846FFF7BCF9D5F8E405A5
:1046600031468268284690472846FFF700FC04E060
:1046700031462846FFF7A5FB00BF00BF70E04FF4AE
:104680008970405D022802D003281BD107E02CB1BD
:10469000802C03D021462846FFF79CF917E070884C
:1046A00078B95CB1802C09D021462846FFF7F5F88F
:1046B000D5F8E40531468268284690472846FFF73A
:1046C000D6FB04E031462846FFF77BFB00BF00BF66
:1046D00046E04FF48970405D022802D0032837D1AC
:1046E00007E02CB1802C03D021462846FFF772F951
:1046F00033E004F08000802812D104F07F0000EB4A
:10470000800105F58E7000EBC100807820B101209A
:104710001549086016E022E000201349086011E006
:1047200004F0800070B904EB840105F55D7000EBC6
:10473000C100807818B101200B49086002E0002018
:1047400009490860022208492846FFF779FB04E07E
:1047500031462846FFF735FB00BF00BF00E000BF31
:1047600000BF384658E70000E402002070B5044658
:104770000D4600264FF48970005D032814D1287976
:1047800001280CDCD4F8E4052946826820469047CD
:10479000E88840B93EB92046FFF769FB03E02946A7
:1047A0002046FFF70EFB04E029462046FFF709FBF1
:1047B00000BF00BF304670BD10B504464FF489708D
:1047C000015D401C01550421401E0155D4F8E81537
:1047D000C8688047002010BD10B5044600F001F8FD
:1047E00010BD7047704710B50446A0B2FBF792FFAA
:1047F00010BD10B504462046FBF7E6FF10BD7CB5A2
:1048000004460025002001900090E068C0680190F7
:10481000019820F04000403001900198E168C860A4
:10482000204600F009F900200090009820F4803024
:1048300000F580300090009820F4802000F5802062
:104840000090009820F4002000F500200090607A8D
:1048500028B1009820F4801000F580100090009896
:10486000E16888631420FFF7BEFF28467CBD70B561
:1048700086B0044600260020059004900390029024
:1048800001900021D4F80C010160206900680490B7
:10489000049820F4C0500490049920690160E07AE3
:1048A00001283DD10321204600F09CFC8020E168D6
:1048B0004862039880B200F58000039003986FF37C
:1048C0000F00803003900398E1688862039800EB42
:1048D0001041029861F30F000290029880B200F537
:1048E000000002900298E168C1F80401029800EB10
:1048F000104161F30F000290029880B20290029979
:10490000E068C0F80811029800EB104161F30F0055
:104910000290029880B202900299E068C0F80C11EF
:104920001021204600F012FC204600F0E9FB002197
:104930002069016120694161491E2069816100216E
:104940002069C16100252CE004F1180050F8250011
:10495000006805900598C00F70B10020059005987B
:1049600020F0804000F180400590059820F0006024
:1049700000F10060059001E00020059004F11800AE
:1049800050F8250005990160002104F1180050F845
:1049900025000161FF2104F1180050F82500816015
:1049A0006D1C6078A842CFD800252CE004F154009B
:1049B00050F82500006800900098C00F70B10020EA
:1049C0000090009820F0804000F180400090009816
:1049D00020F0006000F10060009001E000200090F5
:1049E00004F1540050F8250000990160002104F101
:1049F000540050F825000161FF2104F1540050F8E3
:104A0000250081606D1C6078A842CFD800200190FD
:104A1000019820F4807000F5807001902069006991
:104A200001998843084321690861204600F00BFB87
:104A3000304606B070BD0000F8B5044600260025DB
:104A40000020009000BF0320FFF7D3FEE06800695C
:104A50000090681C05461349884201D90020F8BD22
:104A60000098C00F0028EED00025009820F001002B
:104A7000401C00900098E168086100BFE068006990
:104A80000090681C05460749884200D904E0009858
:104A900000F001000028F1D100BF0320FFF7A9FEBC
:104AA0003046DCE7400D030008B501460020002237
:104AB0000092009A22F00102521C0092CA68926889
:104AC000009B9A43CB689A6008BD0EB50146002052
:104AD000002200920A69926802928A691268019221
:104AE000029AC2F3410232B1012A05D0022A09D04A
:104AF000032A0DD101E000BF00BF019A6FF30A0243
:104B000001920AE0019A6FF30A02D21C019204E0BA
:104B1000019A6FF30A02019200BF00BF019B8A69EC
:104B20001360009A22F4807202F5807200920A6982
:104B30005268009B9A431A430B695A600EBDFCB53C
:104B40000246002000240025019500954D78012D96
:104B500045D193691D6801951D6900954D6955B949
:104B6000009D25F07F050095009D25F4002505F5A5
:104B70000025009516E08E684D69B54207D98D680D
:104B80004D610E7A009D66F30605009504E00E7DEA
:104B9000009D66F306050095009D25F4002505F5AA
:104BA00000250095009D1D61019D25F0806505F1A2
:104BB00080650195019D25F0004505F100450195B1
:104BC000019D1D604D69002D4CD00E780125B5402A
:104BD0002C4315696D6B25431669756342E00E78A9
:104BE00002F1540555F826502D6801950E7802F112
:104BF000540555F826502D6900954D695DB90E7A1A
:104C0000009D66F306050095009D25F4002505F539
:104C1000002500950CE08D684D610E7A009D66F3CD
:104C200006050095009D25F4002505F50025009555
:104C30000F7802F1540555F82750009E2E61019D12
:104C400025F0806505F180650195019D25F0004501
:104C500005F1004501950F7802F1540555F82750EC
:104C6000019E2E60FCBD08B500210091009921F045
:104C7000C04101F1C0410091009921F4002101F5EA
:104C800000210091009921F07F0118310091009AD4
:104C9000416D0A6108BD3CB5024600200024019424
:104CA00000944C78012C0CD10D7802F1180454F8C2
:104CB00025300D780124AC40009D64F30F0500956C
:104CC0000BE00D7802F1540454F825300D780124DE
:104CD000AC40009D64F31F4500951C680194019C45
:104CE000C4F3C034E4B90D89019C65F30A0401944E
:104CF000CD78019C65F3934401948D79019C65F313
:104D000099540194019C24F0805404F1805401943E
:104D1000019C24F4004404F500440194019C1C60AF
:104D20001469E469009D2C431569EC613CBD38B5FC
:104D300003460020002400944C78012C05D10D7806
:104D400003F1180454F8252004E00D7803F154040D
:104D500054F8252014680094009C24F40014009456
:104D6000CC78032C02D0CC78022C05D1009C24F006
:104D7000805404F180540094009C146038BD3CB50C
:104D8000024600200024019400944C78012C0CD1A0
:104D90000D7802F1180454F825300D780124AC4048
:104DA000009D64F30F0500950BE00D7802F15404AB
:104DB00054F825300D780124AC40009D64F31F4564
:104DC0000095019C24F400440194019C1C6014692A
:104DD000E469009DAC431569EC613CBD38B5034600
:104DE0000A460020002400945478012C18D115782C
:104DF00003F1180454F825100C680094009CE40F8B
:104E00002CB1009C24F0804404F180440094009C68
:104E100024F4001404F500140094009C0C600EE0CF
:104E2000157803F1540454F825100C680094009C84
:104E300024F4001404F500140094009C0C6038BDA8
:104E4000FEB505460C460026002700200290019082
:104E5000607801287CD1217805F1180050F82100F4
:104E600000680290217805F1180050F821000069CF
:104E70000190606948B901986FF312000190012117
:104E8000019861F3DC40019017E06169019861F3DA
:104E9000120001906069401EA1680844B0FBF1F166
:104EA000019861F3DC400190E078012805D1019878
:104EB00020F0C04000F100500190227805F1180068
:104EC00050F8220001990161E07801280AD0606958
:104ED00040B12178012000FA01F72869406B38437E
:104EE00029694863E078012813D128698068009017
:104EF0000098C0F3002030B9029820F0005000F173
:104F00000050029005E0029820F0805000F180509F
:104F10000290029820F0806000F180600290029878
:104F200020F0004000F100400290227805F11800C6
:104F300050F8220002990160E078012867D1A08A28
:104F400083B222782846E16800F018FA5FE0FFE7B4
:104F5000217805F1540050F8210000680290217872
:104F600005F1540050F8210000690190606950B9C2
:104F7000A168019861F3120001900121019861F389
:104F8000DC40019017E0A068401E61690844A168F8
:104F9000B0FBF1F1019861F3DC4001900198C0F39E
:104FA000C940A1684843019960F312010191019839
:104FB000C0F312006061227805F1540050F822001D
:104FC00001990161E07801280ED1607930B1029831
:104FD00020F0005000F10050029005E0029820F00F
:104FE000805000F180500290029820F0806000F123
:104FF00080600290029820F0004000F10040029092
:10500000227805F1540050F82200029901603046E0
:10501000FEBD08B500210091491EC26851606FF0C5
:105020008041C2685161009921F0004101F10041C5
:105030000091009921F4006101F50061009100994F
:10504000C268916108BD38B5044600250020009073
:10505000E16888616FF08040E16848612046FFF7B1
:10506000D8FF009820F0100010300090009820F435
:10507000006000F500600090009820F4805000F57A
:1050800080500090009820F4005000F500500090EF
:10509000009820F4802000F580200090009820F4F3
:1050A000002000F500200090009820F00800083053
:1050B0000090009820F4801000F580100090009877
:1050C00020F4001000F500100090E068806900995D
:1050D00088430843E1688861284638BD08B5014621
:1050E000002000220092009A22F00102521C00923D
:1050F000CA689268009B1A43CB689A6008BD00009A
:10510000F8B504460025002600200090009820F005
:105110001000103000900098E168086100BFE0685E
:1051200000690090701C06460749884200D904E0D7
:105130000098C0F300100028F1D100BF0320FFF752
:1051400058FB2846F8BD0000400D0300F8B50446A2
:105150000D460026002700200090009820F0200037
:1051600020300090009865F38A1000900098E16864
:10517000086100BFE06800690090781C0746074995
:10518000884200D904E00098C0F340100028F1D113
:1051900000BF0320FFF72DFB3046F8BD400D030094
:1051A00008B5014600200A6992680092009AC2F38D
:1051B000410232B1012A06D0022A07D0032A07D1C0
:1051C00002E0032006E000BF022003E0012001E02E
:1051D000022000BF00BF08BD0146C868406900F05A
:1051E0000100704708B5026912680092009A61F3E5
:1051F00001020092009B0269136008BD00B50246DF
:105200001046FFF7E9FF012801D0012000BD002072
:10521000FCE701460020CA685069CA6892691040DC
:1052200070470146086982690869C069024090B206
:1052300070470146086982690869C0690240100C1C
:105240007047024602F1540353F8213098681369FD
:105250005B6918407047F0B503460024D01CC7179F
:1052600000EB9777BD10D3F8D06000BF03E0306843
:105270000860091D641CAC42F9D30846F0BD70B546
:1052800002460C460023002001259570402595809C
:10529000012C0BD14FF0A0430125D57208251570C4
:1052A000042555709D15D58002251572D36003F530
:1052B00000651561002110E003F5106505EB41164E
:1052C00002F1180545F8216003F5306505EB41163C
:1052D00002F1540545F82160491C55788D42EBD800
:1052E00003F5806555614035C2F8CC50002108E0D7
:1052F00003F5A06505EB411602F1900545F8216024
:10530000491C15788D42F3D8002108E003F580553B
:1053100005EB013602F1D00545F82160491C1578EE
:105320008D42F3D803F56065C2F80C5170BDF8B535
:1053300004460D460026E068C0680090009820F002
:1053400000500090009820F080400090012D06D180
:10535000009820F0005000F10050009006E02DB9B8
:10536000009820F0804000F1804000900098E168B3
:10537000C8603220FFF737FA3046F8BD2DE9F0411A
:105380000446002600270020DD1C4FEAE57805EBE7
:1053900098784FEAA80704F1D00555F822C000BF5D
:1053A00004E00D68CCF80050091D401CB842F8D349
:1053B0003046BDE8F08130B5024615692B691569A4
:1053C0006C6B24FA01F505F0010543EAC51302F1FF
:1053D000180555F82150AD6805EA030030BD2DE9E8
:1053E000F84306460F4600250020009007EB870192
:1053F00006F58E7000EBC104D4E90501451AA068DA
:10540000A84200D2A568E81C4FEA900806F11800EF
:1054100050F827008069009029E0D4E90501451A79
:10542000A068A84200D2A568E81C4FEA9008ABB279
:10543000FAB23046E168FFF7A1FFE0682844E06077
:10544000A0692844A06106F1180050F8270080697F
:105450000090D4E90501884209D12178012000FAA1
:1054600001F93069406B20EA09003169486300980E
:1054700080B2404506D9D4E90510884202D260695D
:105480000028CAD10120BDE8F883000030B587B0FC
:105490000546594C2846FFF718FB6846FDF724FBE4
:1054A000019CE868C0680590059820F4705005904C
:1054B0000598E968C8602846FFF772FE03280BD1FB
:1054C0000020A8704FF40070A880059820F4705058
:1054D00000F5105005907EE00120A8704020A880C3
:1054E0004648844209D34648844206D2059820F4AF
:1054F000705000F5605005906DE04148844209D33A
:105500004048844206D2059820F4705000F550506F
:10551000059060E03B48844209D33B48844206D270
:10552000059820F4705000F54050059053E036483F
:10553000844209D33548844206D2059820F470503D
:1055400000F53050059046E03048844209D3304899
:10555000844206D2059820F4705000F52050059042
:1055600039E02B48844209D32A48844206D2059860
:1055700020F4705000F5105005902CE0254884422E
:1055800009D32548844206D2059820F4705000F5CE
:10559000005005901FE02048844209D31F488442F0
:1055A00006D2059820F4705000F5E050059012E006
:1055B0001A48844209D31A48844206D2059820F436
:1055C000705000F5C050059005E0059820F470502B
:1055D00000F5A05005900598E968C8600020069085
:1055E000069820F4005000F5005006900698E968EF
:1055F0004861012007B030BD007A030AC0E1E40031
:105600000024F400E0EC040100C31801002D310176
:1056100040A44C0100366E0140E2950180C3C901EF
:1056200060600B02F8B50546002400200090284673
:10563000FFF7F7FD064675E006F0010000286FD081
:10564000E1B22846FFF7B7FE0090009800F0010095
:10565000D0B1012000FA04F72869406BB8432969EA
:10566000486300200090009820F00100401C00904A
:1056700005F1180050F8240000998160E1B22B4830
:1056800000684268284690470098C0F3C00060B1A7
:1056900000200090009820F008000830009005F1EC
:1056A000180050F82400009981600098C0F30010A1
:1056B00060B100200090009820F0100010300090A1
:1056C00005F1180050F82400009981600098C0F39B
:1056D000801060B100200090009820F04000403021
:1056E000009005F1180050F824000099816000989E
:1056F000C0F3400060B100200090009820F002004C
:10570000801C009005F1180050F824000099816079
:105710000098C0F3C01018B121462846FFF75FFE7D
:10572000641C7608002E87D10120F8BDE00200201D
:1057300038B504460020009007480068C16920463B
:105740008847009820F4801000F5801000900098A1
:10575000E1684861012038BDE002002038B5044608
:105760000020009007480068016A2046884700989A
:1057700020F4001000F5001000900098E1684861E6
:10578000012038BDE0020020F8B5054600240020C5
:1057900000902846FFF74DFD064648E006F0010060
:1057A000002842D0E1B22846FFF74BFD0090009858
:1057B00000F0010090B100200090009820F001005E
:1057C000401C009005F1540050F8240000998160BD
:1057D000E1B2194800680268284690470098C0F373
:1057E000400060B100200090009820F00200801C72
:1057F000009005F1540050F8240000998160009851
:10580000C0F3C00088B10C4800688168284688470A
:1058100000200090009820F008000830009005F16A
:10582000540050F8240000998160641C7608002E12
:10583000B4D10120F8BD0000E00200203EB50446CE
:10584000A07A78B1D4F80C0100680090009820F09C
:1058500002000090009820F0010000900099D4F818
:105860000C01016000200190019820F00100401C13
:10587000019020694068019988432169486009487E
:10588000006881692046884700200290029820F035
:10589000004000F1004002900298E1684861012058
:1058A0003EBD0000E00200207CB5044600200190CF
:1058B000019820F0100010300190E0688069019993
:1058C0008843E1688861E068006A0090009800F011
:1058D0000F0000EB800104F55D7000EBC10500983E
:1058E000C0F3434007282DD2DFE800F02C04051D4B
:1058F0001E2C1F0027E00098C0F30A1090B10098FA
:10590000C0F30A122046E968FFF7A5FCE868009991
:10591000C1F30A110844E860A8690099C1F30A11AB
:105920000844A8610FE00EE00DE0082204F2CC511B
:105930002046FFF790FCA8690099C1F30A110844BA
:10594000A86100E000BF00BFE068806901990843DA
:10595000E168886101207CBD38B5044608480068CC
:10596000C1682046884700200090009820F0080079
:10597000083000900098E1684861012038BD0000BF
:10598000E00200201FB50446002000904FF489700B
:10599000005D0090204800684169204688472069E2
:1059A0008068019000200390039820F4006000F5C7
:1059B000006003900398E1684861A07A40B30198C1
:1059C00000F0010020B340F21510005D01281FD146
:1059D0009DF8000003281BD100200290029820F0BF
:1059E0000100401C0290D4F80C01006802990843A1
:1059F000D4F80C110860029820F00200801C02907C
:105A0000D4F80C01006802990843D4F80C1108601E
:105A1000012004B010BD0000E002002030B587B0C6
:105A20000446002002900690059004900390019097
:105A3000029820F00100401C029020694068029901
:105A400088432169486000212046FFF77FFB00253D
:105A50000BE0FF2104F1180050F82500816004F1EB
:105A6000540050F8250081606D1C6078A842F0D881
:105A70004FF0FF312069816106986FF30F00401CE1
:105A80000690069880B200F580300690069920694D
:105A9000C161059820F0080008300590059820F0B5
:105AA0000100401C0590059820F00200801C059024
:105AB000059920694161049820F00100401C049080
:105AC000049820F0080008300490049820F00200A8
:105AD000801C04900499206901612069006803908A
